:1000000045C0000058C0000049C0000047C00000C3
:1000100045C0000043C0000041C000003FC00000D8
:100020003DC000003BC0000039C0000037C00000E8
:1000300035C0000033C0000031C000002FC00000F8
:100040002DC000002BC0000029C000003EC00000F1
:1000500025C0000023C0000021C000001FC0000018
:100060001DC000001BC0000019C0000017C0000028
:1000700015C0000013C0000011C000000FC0000038
:100080000DC000000BC0000009C0000011241FBEFD
:10009000CFEFD0E4DEBFCDBF09D027C0B1CF80EC19
:1000A0008CBD80E484B980E183B90895F8DF789449
:1000B0008FEF8EBDFFCF1F920F920FB60F921124BC
:1000C0000F900FBE0F901F9018951F920F920FB6B2
:1000D0000F9211248F938FEF81B98EB582B98F91D2
:0E00E0000F900FBE0F901F901895F894FFCF51
:00000001FF
