:1000000045C000006CC0000049C0000047C00000AF
:1000100045C0000043C0000041C000003FC00000D8
:100020003DC000003BC0000039C0000037C00000E8
:1000300035C0000033C0000031C000002FC00000F8
:100040002DC000002BC0000029C0000052C00000DD
:1000500025C0000023C0000021C000001FC0000018
:100060001DC000001BC0000019C0000017C0000028
:1000700015C0000013C0000011C000000FC0000038
:100080000DC000000BC0000009C0000011241FBEFD
:10009000CFEFD0E4DEBFCDBF17D03DC0B1CF81EDF3
:1000A0008CBD1DBC80EB84B980E185B90895CF93E8
:1000B000DF931F92CDB7DEB7898315B889818EBDD6
:1000C0000F90DF91CF91089587EA91E60197F1F7BC
:1000D00000C00000E4DF78948AEAE9DFFFCF1F92D6
:1000E0000F920FB60F9211240F900FBE0F901F901A
:1000F00018951F920F920FB60F9211248F9380E1E3
:1001000085B98FEF81B98EB582B98F910F900FBEEF
:0A0110000F901F901895F894FFCF90
:00000001FF
